:020000040800F2
:10000000F0170020AD0100080F430008232D000861
:100010000B43000833030008C56F00080000000010
:10002000000000000000000000000000034600087F
:100030007D03000800000000C945000817460008BD
:10004000C7010008C7010008C7010008C701000870
:10005000C7010008C7010008C7010008C701000860
:10006000C5030008C7010008CF030008C701000846
:10007000C7010008C7010008C7010008C701000840
:10008000C7010008C7010008C70100080000000000
:10009000000000000000000000000000C701000890
:1000A000C7010008C7010008C7010008C701000810
:1000B000C7010008C7010008C7010008372D000864
:1000C000272D0008C7010008C7010008C701000864
:1000D000C7010008C7010008EB4C00080000000041
:1000E000C7010008C7010008C701000800000000A0
:1000F000000000000000000000000000C701000830
:1001000000000000C7010008C7010008C70100087F
:1001100000000000000000000000000000000000DF
:10012000C7010008C7010008C7010008C70100088F
:10013000C7010008000000000000000000000000EF
:100140000000000000000000000000001343000851
:10015000C7010008C7010008C7010008114D0008C9
:10016000C7010008C70100080000000000000000EF
:10017000000000000000000000000000000000007F
:1001800000000000C701000800000000000000009F
:10019000C7010008DFF810D000F08EF800480047D3
:1001A00009750008AFF30080F0170020064880476B
:1001B00006480047FEE7FEE7FEE7FEE7FEE7FEE74C
:1001C000FEE7FEE7FEE7FEE7E146000895010008CE
:1001D0002DE9F05F0546002092469B46884606467C
:1001E000814640241BE0284641464746224600F00F
:1001F00053F853465A46C01A914110D31146184637
:10020000224600F03AF82D1A67EB01084F462246C5
:100210000120002100F031F817EB00094E41201EAB
:10022000A4F10104DFDC484631462A464346BDE8D6
:10023000F09F40EA01039B0703D009E008C9121FA1
:1002400008C0042AFAD203E011F8013B00F8013B90
:10025000521EF9D27047D2B201E000F8012B491EBC
:10026000FBD270470022F6E710B513460A46044653
:100270001946FFF7F0FF204610BD202A04DB203A84
:1002800000FA02F1002070479140C2F1200320FAE9
:1002900003F3194390407047202A04DB203A21FAE7
:1002A00002F00021704721FA02F3D040C2F120028F
:1002B0009140084319467047064C074D06E0E06838
:1002C00040F0010394E8070098471034AC42F6D39D
:1002D000FFF764FF007700082077000870B58C18DE
:1002E00010F8015B15F0070301D110F8013B2A114A
:1002F00006D110F8012B03E010F8016B01F8016B37
:100300005B1EF9D12B0705D40023521E0DD401F832
:10031000013BFAE710F8013BCB1A921C03E013F8FB
:10032000015B01F8015B521EF9D5A142D8D3002030
:1003300070BD00BFFEE7002070470020704770B519
:10034000054600244122294640F26470C2F20000B2
:10035000FFF76FFF00BF0DE040F26470C2F20000D3
:10036000025D214647F2E060C0F6000006F02CFE78
:10037000601CC4B2802CEFDB002070BD70470F20E2
:1003800000BF011EA0F1010290B2FAD1704738B54A
:10039000122542F21070012300222946009040F2FB
:1003A000C010C2F2000000F076FD044644B12146C0
:1003B00047F20060C0F6000006F006FE04F005F902
:1003C000204638BD10B5042000F073F810BD10B5FC
:1003D000102000F06EF810BD47F25C60C0F600001F
:1003E00006F0F2FD72B600BFFEE770B547F61020CA
:1003F000C1F6FF700468001D0568001D06683444DE
:100400007CB1082240F27201C2F20001204603F0E2
:10041000DBFD042240F28201C2F20001284603F013
:10042000D3FD70BD014691F83500022803D080202D
:10043000486501207047052081F83500086800688C
:1004400020F001000A6810600020F3E7014691F8EF
:100450003500704770B5044600F04CF90646254655
:10046000681C28B140F23400C2F200000078054454
:1004700000BF00F03FF9801BA842FAD370BD10B551
:100480000446102C14D110214FF48060C4F20200F5
:1004900000F022F930B9012040F22301C2F200013C
:1004A000087005E0002040F22301C2F2000108704C
:1004B00010BD10B5044643F61440C4F201000068B4
:1004C000204038B143F61440C4F2010004602046D5
:1004D000FFF7D5FF10BDF8B503460A4600250024F6
:1004E00000200021F4E0012606FA01F5166806EA6C
:1004F0000504AC427DD15668012E08D05668022E04
:1005000005D05668112E02D05668122E13D1986865
:100510004F000326BE40B0434F00D668BE40304374
:100520009860586801268E40B0431679C6F30016CD
:100530008E4030435860D8684F000326BE40B04319
:100540004F009668BE403043D8605668022E02D0F5
:100550005668122E13D1CF0803F1200656F8270053
:100560004E07F70E0F26BE40B0434F07FF0E166929
:10057000BE403043CF0803F1200646F82700186834
:100580004F000326BE40B043167906F003064F0025
:10059000BE4030431860566806F08056B6F1805F62
:1005A000A8D100BF0026009643F64406C4F2020616
:1005B000366846F4804643F64407C4F202073E60BC
:1005C0003E46366806F48046009600BF00BF43F6FC
:1005D0000806C4F201068F0856F827008E07370F69
:1005E0000F26BE40B0430026C4F20206B34203D138
:1005F00000E06CE0002620E04FF48066C4F20206C2
:10060000B34201D1012618E04FF40066C4F202069D
:10061000B34201D1022610E04FF44066C4F2020654
:10062000B34201D1032608E04FF48056C4F202061B
:10063000B34201D1042600E007268F073F0FBE40DA
:10064000304343F60806C4F201068F0846F8270037
:100650004FF47056C4F201063068A043566806F4A1
:100660008036B6F5803F00D120434FF47056C4F277
:1006700001063060361D3068A043566806F4003627
:10068000B6F5003F00D1204343F60446C4F201060C
:100690003060361D3068A043566806F48016B6F503
:1006A000801F00D1204343F60846C4F201063060A3
:1006B000361D3068A043566806F40016B6F5001FD4
:1006C00000D1204343F60C46C4F201063060491CB9
:1006D0001029FFF408AFF8BD024613690B400BB1B7
:1006E000012000E0002070470AB1816101E00B04A5
:1006F0008361704740F22C00C2F20000006870472E
:10070000704770472DE9F84F044620684769206814
:10071000D0F80480002594F83E90C7F3002040B143
:10072000C8F3002028B145F001056FF480702168FE
:100730004861C7F3402040B1C8F3002028B145F01C
:1007400002056FF4007021684861C7F3802070B320
:10075000C8F3002058B3CA46B4F82AB094F83D60F4
:10076000206B0090BAF1200F0FD1BBF1000F0CD11C
:10077000212E06D0292E04D0282E06D1009821281B
:1007800003D1204603F09CF911E06FF480602168EA
:10079000486145F00405B9F1100F02D0B9F1400FDE
:1007A00005D12068006840F4007021680860C7F334
:1007B000C02040B1C8F3002028B145F008056FF40F
:1007C0000060216848612DB1206C284320642046D8
:1007D00002F043FBBDE8F88F2DE9F04705464FF0E6
:1007E000000828684668D5F82C9095F83E7095F872
:1007F0003DA0102F01D0402F7FD12868D0F818805D
:100800002868446904F0010060B9B9F52A0F02D0E4
:10081000B9F12A4F01D1012000E00020012801D1C7
:10082000BDE8F08704F0010048B1C6F3402030B1C4
:10083000284602F088FA284603F004F8B4E0C4F32E
:10084000C00030B1C6F3402018B1284602F0B1FE16
:10085000AAE0C4F3400030B1C6F3402018B12846E6
:1008600002F0BCFEA0E0C8F3800028B3286840680E
:1008700000F40060B0F5006FE0D0C4F3C01048B1E0
:10088000C6F3802030B1C4F3800018B9284602F0C6
:1008900024FE89E0C4F380000028CFD0C6F34020B6
:1008A0000028CBD0102F03D1284602F0D1FD7BE0E9
:1008B000284603F016F877E02868406800F40060E6
:1008C000B0F5006F70D0C4F3801050B1C6F3802033
:1008D00038B1C4F3800020B9284602F04AFC63E036
:1008E0000BE0C4F3800000285ED0C6F3402000284F
:1008F0005AD0284602F0AAFB56E0286C10B12868AE
:10090000446904E02868D0F8188028684469C4F372
:10091000400060B1C6F3402048B1286C10B128688F
:10092000D0F818804146284603F097F83CE0C4F31D
:10093000001030B1C6F3402018B1284603F012F978
:1009400032E0BAF1210F02D0BAF1290F16D1C4F367
:10095000C01048B1C6F3802030B1C4F3800018B98C
:10096000284603F057F81FE0C4F38000E0B1C6F357
:100970004020C8B1284603F040F815E0C4F38010C9
:1009800048B1C6F3802030B1C4F3800018B92846BE
:1009900003F010F808E0C4F3800028B1C6F340204B
:1009A00010B1284602F0F9FF00BF39E7704770B573
:1009B00004460CB9012070BD94F83D0028B9002010
:1009C00084F83C00204600F020FB242084F83D0001
:1009D0002068006820F00100216808602068006835
:1009E00040F40040216808602068006820F400405E
:1009F0002168086001F066FB054648F2A061C0F27C
:100A000001016068884209D848F28040C0F21E00A7
:100A1000854201D201200AE0002008E04FF4106076
:100A2000C0F23D00854201D2012000E000200128F3
:100A300000D1C0E744F24020C0F20F00B5FBF0F651
:100A40002068406820F03F0030432168486048F249
:100A5000A061C0F201016068884201D8701C07E003
:100A60004FF4967070434FF47A71B0FBF1F0401C74
:100A70002168096A21F03F0108432168086248F2B1
:100A8000A061C0F201016068884214D8681E6168E4
:100A90004900B0FBF1F0401CC0F30B00042801D268
:100AA00004203DE0681E61684900B0FBF1F0401C85
:100AB000C0F30B0034E0A06838B9681E616801EB30
:100AC0004101B0FBF1F0401C0AE0681E616801EBD7
:100AD000C10202EB0111B0FBF1F0401C40F4804078
:100AE000C0F30B0008B901201AE0A06848B9681EDD
:100AF000616801EB4101B0FBF1F0401CC0F30B0059
:100B00000CE0681E616801EBC10202EB0111B0FB51
:100B1000F1F0401CC0F30B0040F4804040F4004072
:100B20002168C96921F0FF0121F44F410843216880
:100B3000C861D4E9070108432168096821F0C001B0
:100B4000084321680860D4E90310084321688968D4
:100B500021F0FF0121F40341084321688860D4E9B2
:100B6000050108432168C96821F0FF010843216895
:100B7000C8602068006840F001002168086000201B
:100B80002064202084F83D000020206384F83E008B
:100B900000BF10E77047704770472DE9F8430446DF
:100BA000894617469846089EFFF7A4FD054694F827
:100BB0003D00202871D1192301220221C0F2100129
:100BC0002046009503F0C5F810B10220BDE8F88377
:100BD00000BF94F83C00012801D10220F6E7012073
:100BE00084F83C0000BF2068006800F0010028B9CC
:100BF0002068006840F001002168086020680068F3
:100C000020F4006021680860222084F83D00102054
:100C100084F83E00002020646762A4F82A80608D7A
:100C200020850020CFF6FF70E0622B463246494611
:100C3000204602F00FFB08B10120C7E7208D88B9DC
:100C400000BF002000902068406900902068806903
:100C5000009000BF00BF2068006840F40070216869
:100C6000086046E0208D012818D12068006820F433
:100C700080602168086000BF002000902068406903
:100C8000009020688069009000BF00BF2068006865
:100C900040F40070216808602BE0FAE0208D022803
:100CA00016D12068006820F4806021680860206800
:100CB000006840F400602168086000BF00200090D8
:100CC00020684069009020688069009000BF10E0B3
:100CD0002068006840F480602168086000BF002040
:100CE000009020684069009020688069009000BFF3
:100CF00000BFBFE0208D032873D8208D012815D1B7
:100D00002A463146204603F0C9F808B101205DE7C4
:100D100020680069616A0870606A401C6062208D0A
:100D2000401E2085608D401E6085A3E0208D022836
:100D30002CD1334600220421C0F201012046009547
:100D400003F007F808B1012040E72068006840F48C
:100D500000702168086020680069616A0870606A34
:100D6000401C6062208D401E2085608D401E608585
:100D700020680069616A0870606A401C6062208DAA
:100D8000401E2085608D401E608573E03346002242
:100D90000421C0F201012046009502F0DAFF08B1FB
:100DA000012013E72068006820F480602168086053
:100DB00020680069616A0870606A401C6062208D6A
:100DC000401E2085608D401E608533460022042130
:100DD000C0F201012046009502F0BBFF10B10120D6
:100DE000F4E620E02068006840F4007021680860A4
:100DF00020680069616A0870606A401C6062208D2A
:100E0000401E2085608D401E608520680069616AF3
:100E10000870606A401C6062208D401E2085608DD5
:100E2000401E608526E02A463146204603F036F80B
:100E300008B10120CAE620680069616A0870606A2A
:100E4000401C6062208D401E2085608D401E6085A4
:100E500020684069C0F3800060B120680069616A61
:100E60000870606A401C6062208D401E2085608D85
:100E7000401E6085208D00287FF43CAF202084F840
:100E80003D00002084F83E0000BF84F83C0000BF15
:100E90009CE602209AE62DE9F84304468946164668
:100EA0001F46DDF82080FFF725FC054694F83D003D
:100EB00020287ED1192301220221C0F210012046F0
:100EC000009502F046FF10B10220BDE8F88300BF94
:100ED00094F83C00012801D10220F6E7012084F8B3
:100EE0003C0000BF2068006800F0010028B92068BD
:100EF000006840F00100216808602068006820F464
:100F0000006021680860212084F83D00102084F8EA
:100F10003E000020206466626785608D2085002089
:100F2000CFF6FF70E0622B4642464946204602F06B
:100F30002FFA08B10120C8E700BF00200090206808
:100F40004069009020688069009000BF00BF44E0C5
:100F50002A464146204603F009F850B1206C042887
:100F600005D12068006840F4007021680860012005
:100F7000ABE7606A007821680861606A401C6062C3
:100F8000608D401E6085208D401E20852068406950
:100F9000C0F3800080B1208D70B1606A0078216854
:100FA0000861606A401C6062608D401E6085208D13
:100FB00000E026E0401E20852A464146204602F0F9
:100FC0009AFE50B1206C042805D12068006840F4D6
:100FD000007021680860012077E7208D0028B7D1D4
:100FE0002068006840F4007021680860202084F8C0
:100FF0003D00002084F83E0000BF84F83C0000BFA4
:1010000063E7022061E77047704710B586B0044679
:10101000142101A8FFF726F94FF4A841C4F20001FA
:10102000206888424DD100BF0020009043F6300078
:10103000C4F20200006840F0020043F63001C4F23E
:10104000020108600846006800F00200009000BF3E
:1010500000BF4FF4407001901220029001200390D5
:10106000032004900420059001A94FF48060C4F28D
:101070000200FFF730FA00BF002000904FF46150EB
:10108000C4F20200006840F400104FF46151C4F251
:10109000020108600846006800F40010009000BFDC
:1010A00000BF002211461F2000F0A2F81F2000F010
:1010B0008FF800221146202000F09AF8202000F03E
:1010C00087F806B010BD7047704740F22C00C2F29E
:1010D0000000006840F23401C2F2000109780844BF
:1010E00040F22C01C2F200010860704710B54FF4C5
:1010F0007050C4F20200006840F400704FF4705168
:10110000C4F2020108600846006840F4806008608C
:101110000846006840F480700860032000F0A6F8DC
:10112000002000F004F800F02BF8002010BD70B58E
:10113000044640F23400C2F2000000784FF47A71A5
:10114000B1FBF0F040F23801C2F200010968B1FBD6
:10115000F0F5284601F0F4FA08B1012070BD102C1A
:101160000AD200222146501E00F042F840F2300020
:10117000C2F20000046001E00120EFE70020EDE78B
:1011800008B500BF0020009043F64400C4F20200FE
:10119000006840F4804043F64401C4F20201086054
:1011A0000846006800F48040009000BF00BF00BF08
:1011B00000200090081F006840F08050091F086060
:1011C0000846006800F08050009000BF00BF08BDD6
:1011D00001460846002809DB00F01F0301229A405F
:1011E00043099B0003F1E023C3F8002100BF7047CF
:1011F0002DE9F05F80460D461646002705F0F4FE07
:10120000074639462A46334601F00700C0F1070A6F
:10121000BAF1040F02D94FF0040A01E0C0F1070A45
:10122000D14600F1040ABAF1070F02D24FF0000ACA
:1012300001E0A0F1030AD4464FF0010A0AFA09FAC4
:10124000AAF1010A0AEA020A0AFA0CFA4FF0010BA3
:101250000BFA0CFBABF1010B0BEA030B4AEA0B0494
:101260002146404605F0C8FEBDE8F09F00BF00F0F3
:1012700007024EF60C53CEF2000319684FF6FF0337
:10128000194041F0FD7343F0806343EA02214EF6BA
:101290000C53CEF20003196000BF7047704702463E
:1012A0001068416200207047F0B503461546186883
:1012B000446A21B944EA05401E68B06219E0186822
:1012C000806A04EB1044002208E0186800F5827080
:1012D00050F8220004EB1044501CC2B2481E904249
:1012E000F3D844EA0547186800F582704E1E40F8AE
:1012F00026700020F0BD10B50446D4F8040404F0B4
:1013000079FA10BD70B504460D46C5EBC50304F16E
:101310003C0101EB8301CA682946D4F8040404F0B7
:10132000ADF970BD70B504460D46C5EBC50304F5B7
:10133000FE7101EB8301CA682946D4F8040404F065
:1013400010FA70BD10B50446D4F8040404F055FA40
:1013500010BD70B504460E4606F0800080280AD104
:1013600006F00F00C0EBC00104F13C0000EB81056A
:101370000120687009E006F00F00C0EBC00104F521
:10138000FE7000EB81050020687006F00F002870E9
:1013900000BF94F8BC03012801D1022070BD0120D8
:1013A00084F8BC0300BF2946206804F055FF00BF45
:1013B000002084F8BC0300BF00BFEFE770B504460F
:1013C0000E4606F00F006168884201D9012070BD09
:1013D00006F0800080280AD106F00F00C0EBC001A3
:1013E00004F13C0000EB81050120687009E006F083
:1013F0000F00C0EBC00104F5FE7000EB810500207A
:1014000068700020A87006F00F00287000BF94F8E4
:10141000BC03012801D10220D9E7012084F8BC03D4
:1014200000BF2946206805F005FA00BF002084F8B7
:10143000BC0300BF00BFCAE72DE9F04705460E46D2
:1014400090461F464FF0000906F0800080280AD120
:1014500006F00F00C0EBC00105F13C0000EB810479
:101460000120607009E006F00F00C0EBC00105F537
:10147000FE7000EB81040020607006F00F00207009
:10148000C4F80880E770607808B12078E080022F07
:1014900001D10020207100BF95F8BC03012802D1C2
:1014A0000220BDE8F087012085F8BC0300BF21467B
:1014B000286804F0EBFD00BF002085F8BC0300BFE6
:1014C0004846EEE72DE9F04104460E461746984699
:1014D00006F00F00C0EBC00104F5FE7000EB8105C3
:1014E000EF60C5F814800020A861687006F00F0056
:1014F00028702069012800D12F6106F00F0028B95B
:10150000227C2946206805F06CF804E0227C2946FC
:10151000206805F023FA0020BDE8F08170B504468C
:101520000D4605F00F006168884201D9012070BDA9
:1015300005F0800080280AD105F00F00C0EBC00143
:1015400004F13C0000EB81060120707007E0C5EB60
:10155000C50104F5FE7000EB8106002070700120CB
:10156000B07005F00F00307000BF94F8BC03012884
:1015700001D10220DBE7012084F8BC0300BF314623
:10158000206805F09EF905F00F0028B9217C04F5CC
:101590007172206805F016F900BF002084F8BC03C2
:1015A00000BF00BFC3E72DE9F04104460E461746D1
:1015B000984606F00F00C0EBC00104F13C0000EBC0
:1015C0008105EF60C5F814800020A86101206870D3
:1015D00006F00F0028702069012800D12F6106F065
:1015E0000F0028B9227C2946206804F0FAFF04E0A5
:1015F000227C2946206805F0B1F90020BDE8F08181
:101600002DE9FE4F044620680290029D206805F0F7
:1016100096FB00287DD1206805F0D0FB08B9BDE815
:10162000FE8F206805F0CAFB00F00200022805D1F9
:101630002068406900F0020021684861206805F0D8
:10164000BDFB00F01000102846D12068806920F012
:101650001000216888610298D0F8209009F00F00EE
:10166000C0EBC00104F5FE7000EB810BC9F34340F1
:1016700002281AD147F6F07009EA000030B3C9F326
:101680000A12DBF80C10029805F09DFBC9F30A1151
:10169000DBF80C000844CBF80C00C9F30A11DBF8A6
:1016A00018000844CBF8180010E0C9F3434006289E
:1016B0000CD1082204F57171029805F084FBC9F37E
:1016C0000A11DBF818000844CBF81800206880697C
:1016D00040F0100021688861206805F06FFB00F47D
:1016E0000020B0F5002F52D10026206805F036FB0F
:1016F000824649E00AF00100E8B3F1B2206805F043
:1017000050FB804608F0010058B1012105F530601A
:1017100000E021E200EB461081603146204602F0F5
:1017200035FE08F00800082809D1082105F53060C9
:1017300000EB461081603146204602F0F2FD08F0D1
:101740001000102805D1102105F5306000EB46107F
:10175000816008F02000202805D1202105F53060A7
:1017600000EB4610816008F40050B0F5005F08D12E
:101770004FF4005100E004E005F5306000EB461046
:101780008160761C4FEA5A0ABAF1000FB2D1206884
:1017900005F014FB00F48020B0F5802F7ED1206886
:1017A00005F0D2FA8246002683E00AF00100002804
:1017B0007CD0F1B2206805F0DBFA804608F0010029
:1017C000F0B306F00F0101208840019040F634008C
:1017D0004159019821EA000040F6340148510121A5
:1017E00005F5106000EB461081602069012824D1C6
:1017F000C6EBC60104F13C0000EB8100C6EBC6025B
:10180000C16804F13C0000EB820080680144C6EB33
:10181000C60204F13C0000EB8200C1606EB9C6EB69
:10182000C60104F13C0000EB8100406928B904F5D1
:1018300071720121206804F0C5FFF1B2204600E07A
:1018400001E0FFF75FFD08F00800082805D1082136
:1018500005F5106000EB4610816008F010001028BC
:1018600005D1102105F5106000EB4610816008F0ED
:101870004000402805D1402105F5106000EB4610DE
:10188000816008F00200022805D1022105F51060F0
:1018900000EB4610816008F0800001E00DE005E0FB
:1018A000802803D13146204602F033FE761C4FEAF1
:1018B0005A0ABAF1000F7FF478AF206805F07EFA7B
:1018C00000F00040B0F1004F1CD140F60400405938
:1018D00020F0010140F60400415194F8F40301287E
:1018E00007D1002084F8F40300212046FFF7D6FC3E
:1018F00002E0204600F06FFA2068406900F00040E6
:1019000021684861206805F059FA00F40060B0F5DC
:10191000006F0ED140F60800405900F0010010B1F0
:10192000204600F0AFFA2068406900F400602168AA
:101930004861206805F042FA00F48050B0F5805FFD
:101940007DD140F60400405920F0010140F604002A
:1019500041511021206805F0C6F900273EE04FF6FE
:101960007F3105F5106000EB4710816005F51060D0
:1019700000EB4710006820F4001105F5106000EB43
:101980004710016005F5106000EB4710006840F05B
:10199000006105F5106000EB471001604FF67F31E4
:1019A00005F5306000EB4710816005F5306000EB15
:1019B0004710006820F4001105F5306000EB471077
:1019C000016005F5306000EB4710006840F00061F1
:1019D00005F5306000EB471001607F1C6068B8427D
:1019E000BDD840F61C00405940F0011140F61C00E3
:1019F0004151206B70B1D5F8840840F00B01C5F857
:101A0000841840F64400405940F00B0140F6440071
:101A100041510FE040F61400405942F22B010843B7
:101A200040F614014851081F405940F00B014FF493
:101A300001604151D5F8000820F4FE6000E00DE09F
:101A4000C5F80008217C04F57172206804F0BAFE24
:101A50002068406900F4805021684861206805F0E2
:101A6000ADF900F40050B0F5005F17D1206804F024
:101A700074FB206805F050F9E06000F01DFB009059
:101A8000227B2068009905F0E8F9204600F08BF9E8
:101A90002068406900F4005021684861206805F022
:101AA0008DF900F00800082808D1204600F09AF9C6
:101AB0002068406900F0080021684861206805F04E
:101AC0007DF900F48010B0F5801F0AD10026314660
:101AD000204600F043F82068406900F48010216837
:101AE0004861206805F06AF900F40010B0F5001FA5
:101AF0000AD100263146204600F039F820684069B6
:101B000000F4001021684861206805F057F900F0E2
:101B10008040B0F1804F08D12046FFF7ECFB2068F1
:101B2000406900F0804021684861206805F046F96E
:101B300000F0040004280FD12068D0F8049009F0C8
:101B40000400042802D12046FFF7FCFB206840680F
:101B500040EA09002168486000BF60E570B50446AE
:101B60000D462946D4F8040403F0B7FE70BD70B5E5
:101B700004460D462946D4F8040403F0B1FE70BDB6
:101B800070B58AB0044614B901200AB070BD266849
:101B900094F8BD0328B9002084F8BC03204600F067
:101BA000A2F8032084F8BD03F06B00F4807008B93C
:101BB00000212161206804F00DFD282204F11001AC
:101BC0006846FEF736FB94E80F0004F0DAFA20B11D
:101BD000022084F8BD030120D7E70021206805F02A
:101BE00003F9002531E00121C5EBC50204F13C00F9
:101BF00000EB82004170C5EBC50104F13C0000F828
:101C00002150C5EBC50100EB8100C5800021C5EB6B
:101C1000C50204F13C0000EB8200C170C5EBC502B7
:101C200004F13C0000EB82008160C5EBC50204F1C9
:101C30003C0000EB8200C160C5EBC50204F13C0032
:101C400000EB82004161681CC5B26068A842CAD836
:101C500000252AE00021C5EBC50204F5FE7000EB6B
:101C600082004170C5EBC50104F5FE7000F82150FB
:101C70000021C5EBC50200EB8200C170C5EBC502B7
:101C800004F5FE7000EB82008160C5EBC50204F52F
:101C9000FE7000EB8200C160C5EBC50204F5FE706A
:101CA00000EB82004161681CC5B26068A842D1D8CF
:101CB000282204F110016846FEF7BBFA94E80F00F1
:101CC00004F097FB20B1022084F8BD0301205CE7FB
:101CD000002084F83800012084F8BD03206804F057
:101CE00076FB002051E710B586B00446142101A808
:101CF000FEF7B8FA2068B0F1A04F52D100BF002023
:101D0000009043F63000C4F20200006840F0010089
:101D100043F63001C4F2020108600846006800F092
:101D20000100009000BF00BF4FF4C050019002209E
:101D3000029000200390032004900A20059001A93E
:101D40000020C4F20200FEF7C6FB00BF43F63400D9
:101D5000C4F20200006840F0800043F63401C4F28F
:101D60000201086000BF0020009043F64400C4F266
:101D70000200006840F4804043F64401C4F20201CE
:101D800008600846006800F48040009000BF00BF73
:101D900000BF002211464320FFF72AFA4320FFF735
:101DA00017FA06B010BD70B504460125E06808B901
:101DB000002506E0E068022801D1012501E0FEF7D8
:101DC0000BFB2946D4F8040403F006FED4F80404FF
:101DD00003F0B9FD70BD10B50446D4F8040403F057
:101DE000DFFD10BD10B50446D4F8040403F0E3FD94
:101DF00010BD70B504460D4600BF94F8BC03012821
:101E000001D1022070BD012084F8BC0300BF84F81A
:101E100038502946206805F002F800BF002084F8F9
:101E2000BC0300BF00BFEDE710B5044604F57171B7
:101E3000D4F8040403F0E7FD10BD70B5044625682E
:101E400000BF94F8BC03012801D1022070BD01201D
:101E500084F8BC0300BFA06A012806D1A06901284C
:101E600003D0A86B40F48030A863206804F01EFF04
:101E7000206804F09AFA00BF002084F8BC0300BF79
:101E800000BFE3E710B50446D4F8040403F018FEDD
:101E90002068D0F8000E40F001002168C1F8000E63
:101EA000206A58B14EF61050CEF20000006840F0A3
:101EB00006004EF61051CEF20001086010BD70B55C
:101EC00004460D460CB9012070BD4FF47050C4F2A9
:101ED0000200006800F00F00A8420CD24FF47051CD
:101EE000C4F202010D700846006800F00F00A8421D
:101EF00001D00120E8E7207800F0020002282FD16D
:101F0000207800F0040004280BD143F60800C4F246
:101F10000200006840F4E05043F60801C4F20201F8
:101F20000860207800F0080008280BD143F608006C
:101F3000C4F20200006840F4604043F60801C4F2B5
:101F40000201086043F60800C4F20200006820F0B5
:101F5000F000A168084343F60801C4F202010860DA
:101F6000207800F00100C0B36068012809D14FF467
:101F70006050C4F202000068C0F34040D8B90120AC
:101F8000A2E76068022802D06068032809D14FF4F4
:101F90006050C4F202000068C0F3406058B90120EC
:101FA00092E74FF46050C4F202000068C0F34000B2
:101FB00008B9012088E743F60800C4F2020000686F
:101FC00020F003006168084343F60801C4F20201EF
:101FD0000860FEF78FFB064609E013E0FEF78AFB78
:101FE000801B41F28831884201D903206CE743F617
:101FF0000800C4F20200006800F00C006168B0EB59
:10200000810FEBD14FF47050C4F20200006800F071
:102010000F00A8420CD94FF47051C4F202010D70A8
:102020000846006800F00F00A84201D001204BE7ED
:10203000207800F0040004280DD143F60800C4F213
:102040000200006820F4E050E168084343F608010C
:10205000C4F202010860207800F0080008280ED1C0
:1020600043F60800C4F20200006820F460402169D1
:1020700040EAC10043F60801C4F20201086000F022
:1020800043F843F60801C4F202010968C1F30311E1
:1020900047F2E852C0F60002515CC84040F23801F5
:1020A000C2F20001086040F23000C2F20000006895
:1020B000FFF73DF8002007E740F23800C2F20000C9
:1020C0000068704700B5FFF7F7FF43F60801C4F258
:1020D00002010968C1F3822147F2F852C0F60002FA
:1020E000515CC84000BD00B5FFF7E6FF43F60801AC
:1020F000C4F202010968C1F3423147F2F852C0F656
:102100000002515CC84000BD2DE9F04700240025C5
:102110000026A14643F60800C4F20200006800F061
:102120000C0020B1042807D008284ED109E04FF454
:102130001059C0F2F4094DE04FF41059C0F2F409FF
:1021400048E043F60400C4F20200006800F03F04D7
:1021500043F60400C4F20200006800F48000A0B15D
:102160004FF41050C0F2F40043F60401C4F202012F
:102170000968C1F38811A0FB0170014622460023C3
:102180003846FEF725F8054613E04FF41050C0F22C
:10219000F40043F60401C4F202010968C1F3881196
:1021A000A0FB01700146224600233846FEF710F8D6
:1021B000054643F60400C4F202000068C0F3014083
:1021C000401C4600B5FBF6F904E04FF41059C0F28C
:1021D000F40900BF00BF4846BDE8F087F8B50446E3
:1021E0000CB90120F8BD207800F00100002870D063
:1021F00043F60800C4F20200006800F00C00042856
:1022000012D043F60800C4F20200006800F00C008F
:10221000082817D143F60400C4F20200006800F455
:102220008000B0F5800F0DD14FF46050C4F2020071
:102230000068C0F3404000286AD06068002867D179
:102240000120CFE700BF6068B0F5803F0CD14FF4AC
:102250006050C4F20200006840F480304FF46051D6
:10226000C4F20201086026E06068B0F5A02F11D129
:102270004FF46050C4F20200006840F480204FF434
:102280006051C4F2020108600846006840F48030E2
:10229000086010E04FF46050C4F20200006820F4BF
:1022A00080304FF46051C4F20201086008460068B3
:1022B00020F48020086000BF6068A8B1FEF71AFA19
:1022C000054607E0FEF716FA401B642802D90320F2
:1022D00088E71DE04FF46050C4F202000068C0F3CC
:1022E00040400028EED013E0FEF704FA054606E071
:1022F000FEF700FA401B642801D9032072E74FF46F
:102300006050C4F202000068C0F340400028EFD1E2
:10231000207800F00200022879D143F60800C4F2C8
:102320000200006800F00C0080B143F60800C4F21F
:102330000200006800F00C00082824D143F60400D5
:10234000C4F20200006800F48000E0B94FF460506D
:10235000C4F202000068C0F3400020B1E068012828
:1023600001D001203EE74FF46050C4F20200006843
:1023700020F0F800216940EAC1004FF46051C4F236
:102380000201086043E0E06840B301200021C4F28C
:1023900047210860FEF7AEF9054606E0FEF7AAF908
:1023A000401B022801D903201CE74FF46050C4F2FF
:1023B00002000068C0F340000028EFD04FF46050E6
:1023C000C4F20200006820F0F800216940EAC10070
:1023D0004FF46051C4F20201086018E000200021AF
:1023E000C4F247210860FEF785F9054606E0FEF7CE
:1023F00081F9401B022801D90320F3E64FF4605015
:10240000C4F202000068C0F340000028EFD1207839
:1024100000F00800082836D16069D0B101204FF4DF
:102420006861C4F247210860FEF764F9054606E0DA
:10243000FEF760F9401B022801D90320D2E643F6DB
:102440007400C4F202000068C0F340000028EFD01E
:1024500019E000204FF46861C4F247210860FEF7DC
:1024600049F9054606E0FEF745F9401B022801D967
:102470000320B7E643F67400C4F202000068C0F31C
:1024800040000028EFD1207800F0040004287CD11F
:1024900000274FF46150C4F20200006800F0805041
:1024A000B0B900BF002000904FF46150C4F20200A8
:1024B000006840F080504FF46151C4F2020108609E
:1024C0000846006800F08050009000BF00BF012760
:1024D0004FF4E040C4F20000006800F48070F8B9E6
:1024E0004FF4E040C4F20000006840F480704FF404
:1024F000E041C4F200010860FEF7FCF8054606E082
:10250000FEF7F8F8401B022801D903206AE64FF4D1
:10251000E040C4F20000006800F480700028EFD0B2
:1025200000BFA06801280CD143F67000C4F202007D
:10253000006840F0010043F67001C4F20201086037
:1025400027E0A068052811D143F67000C4F202000C
:10255000006840F0040043F67001C4F20201086014
:102560000846006840F00100086012E043F6700081
:10257000C4F20200006820F0010043F67001C4F2CA
:10258000020108600846006800E041E020F0040015
:10259000086000BFA068B0B1FEF7ACF8054608E0DF
:1025A000FEF7A8F8401B41F28831884201D9032088
:1025B00018E643F67000C4F202000068C0F3400061
:1025C0000028EDD015E0FEF795F8054608E0FEF787
:1025D00091F8401B41F28831884201D9032001E67D
:1025E00043F67000C4F202000068C0F34000002807
:1025F000EDD1012F0BD14FF46150C4F202000068FD
:1026000020F080504FF46151C4F20201086000BF15
:10261000A069002852D043F60800C4F20200006806
:1026200000F00C00082864D0A069022847D10020DF
:102630000021C4F247210866FEF75CF8054606E073
:10264000FEF758F8401B022801D90320CAE54FF4D1
:102650006050C4F202000068C0F340600028EFD16F
:10266000D4E907010843616A40EA81110122A06AA6
:10267000C2EB500041EA00412C20005D41EA0060BD
:1026800043F60401C4F20201086001200021C4F2F3
:1026900047210866FEF72EF8054606E0FEF72AF801
:1026A000401B022801D903209CE54FF46050C4F27E
:1026B00002000068C0F340600028EFD03EE0002038
:1026C0000021C4F247210866FEF714F8054606E02B
:1026D000FEF710F8401B022801D9032082E54FF4D1
:1026E0006050C4F202000068C0F340600028EFD1DF
:1026F00024E0A069012800D174E543F60400C4F287
:102700000200066806F48001E069814214D106F0F7
:102710003F01206A81420FD147F6C0703040616AA4
:10272000884209D106F44031A06A814204D106F002
:102730007061E06A814201D0012053E5002051E53B
:1027400070B504462546681EB0F1807F01D3012094
:102750000FE0681E4FF0E02148610F214FF0FF307D
:1027600004F04AFC00204FF0E02188610720086156
:10277000002070BD70472DE9F047044620680568C9
:102780002068C668206847694FF00008C14605F018
:102790000F08B8F1000F0AD105F0200038B106F09B
:1027A000200020B1204601F0D9FFBDE8F087B8F144
:1027B000000F75D007F0010018B906F490700028DA
:1027C0006ED005F0010030B106F4807018B1E06BF6
:1027D00040F00100E06305F0040030B107F00100B3
:1027E00018B1E06B40F00200E06305F0020030B188
:1027F00007F0010018B1E06B40F00400E06305F061
:10280000080048B106F0200010B907F0010018B127
:10281000E06B40F00800E063E06B88B305F0200057
:1028200028B106F0200010B1204601F097FF206883
:102830004069C0F38019E06B00F0080010B9B9F1ED
:10284000000F26D0204601F069FF2068406900F0A3
:102850004000402819D12068406920F040002168DC
:102860004861606B68B144F20970C0F60000616BAA
:102870000865606BFDF7D6FD10B1606B016D884790
:102880000CE02046FFF776FF08E02046FFF772FFD6
:1028900004E02046FFF76EFF0020E06385E7FFE7D6
:1028A00005F0800030B106F0800018B1204602F03B
:1028B000B2F97AE705F0400030B106F0400018B1F7
:1028C000204601F03BFF70E700BF6EE710B50446FD
:1028D0000CB9012010BDA06900B100E000BF94F860
:1028E000390028B9002084F83800204600F027F885
:1028F000242084F839002068C06820F40050216842
:10290000C860204601F07DFF2068006920F49040F7
:10291000216808612068406920F02A002168486128
:102920002068C06840F400502168C8600020E0635F
:10293000202084F8390084F83A000020CAE710B556
:1029400086B00446142101A8FDF78CFC4FF48841A1
:10295000C4F200012068884244D100BF00200090EA
:102960004FF46150C4F20200006840F400304FF4AC
:102970006151C4F2020108600846006800F40030AA
:10298000009000BF00BF00BF0020009043F6300061
:10299000C4F20200006840F0010043F63001C4F2C6
:1029A000020108600846006800F00100009000BFC6
:1029B00000BF0C2001900220029000200390032011
:1029C00004900720059001A90020C4F20200FDF741
:1029D00082FD002201212620FEF70AFC2620FEF7B8
:1029E000F7FB4BE04FF4A051C4F20101206888428C
:1029F00044D100BF0020009043F64400C4F202001E
:102A0000006840F0200043F64401C4F2020108606F
:102A10000846006800F02000009000BF00BF00BF23
:102A20000020009043F63000C4F20200006840F03D
:102A3000040043F63001C4F2020108600846006851
:102A400000F00400009000BF00BFC02001900220F1
:102A5000029000200390032004900820059001A913
:102A60004FF40060C4F20200FDF735FD002203219F
:102A70004720FEF7BDFB4720FEF7AAFB06B010BDBE
:102A800010B5034693F83A0020282FD101B10AB9B6
:102A9000012010BD00BF93F83800012801D10220A9
:102AA000F7E7012083F8380000BF99629A85DA853C
:102AB0000020D863222083F83A0000BF002083F86A
:102AC000380000BF1868C06840F480701C68E0607F
:102AD0001868406940F001001C6860611868C068AF
:102AE00040F020001C68E0600020D2E70220D0E720
:102AF0001CB504464FF4A051C4F20101206888427D
:102B000027D140F22400C2F2000000788DF80000C6
:102B100040F22400C2F200000168009100798DF8B3
:102B2000040040F22400C2F20000002101600171A3
:102B30004FF47A730522694640F25420C2F2000035
:102B400000F030F8112140F21200C2F2000002F051
:102B5000C3F94FF48841C4F200012068884220D1B3
:102B600040F22400C2F2000000788DF8000040F22C
:102B70002400C2F200000168009100798DF8040081
:102B800040F22400C2F200000021016001714FF404
:102B90007A730522694640F21420C2F2000000F068
:102BA00001F81CBD2DE9F84304460D4616461F46A4
:102BB0004FF0000994F8390020285DD105B116B90D
:102BC0000120BDE8F88300BF94F83800012801D146
:102BD0000220F6E7012084F8380000BF0020E063FF
:102BE000212084F83900FDF785FD8146A684E6841E
:102BF00000BF002084F8380000BF2BE0E08C401EAE
:102C0000E084A068B0F5805F16D14B460022802199
:102C10002046009702F033F808B10320D1E7A84618
:102C2000B8F80000C0F3080021684860206908B9BE
:102C3000AD1C0FE06D1C0DE04B46002280212046AC
:102C4000009702F01CF808B10320BAE715F8010B51
:102C500021684860E08C0028D0D14B4600224021FA
:102C60002046009702F00BF808B10320A9E72020C6
:102C700084F839000020A4E70220A2E7704738B5A5
:102C800040F22300C2F200000078002848D042E061
:102C900040F22300C2F20000007800B93CE064205A
:102CA000112340F2A412C2F20002009040F2000090
:102CB000C2F20000017840F2C010C2F20000FDF73D
:102CC0006CFF0446012C08D147F22860C0F60000D2
:102CD00004F07AF901F079FC1EE0022C08D147F2E9
:102CE0003860C0F6000004F06FF901F06EFC13E0EC
:102CF000032C08D147F24860C0F6000004F064F9E4
:102D000001F063FC08E034B9112140F2A410C2F2D2
:102D1000000002F0E1F8BBE700BFFDF738FB00BFA1
:102D200038BD00BFFEE710B540F2C010C2F200008F
:102D3000FDF7E8FC10BD10B540F2C010C2F2000073
:102D4000FDF74AFD10BDC16AB1F52A0F02D101217C
:102D5000C16205E0C16AB1F12A4F01D10821C16207
:102D60007047F8B5054600200090AC6B94F83D60C4
:102D700040F23800C2F2000000681921B0FBF1F007
:102D80004FF47A71B0FBF1F0C0EBC00000EB8000B3
:102D9000009000BF009820B9206C40F02000206413
:102DA00009E00098401E00902068006800F4007060
:102DB000B0F5007FEED000BF606B10B10020616BFA
:102DC000C863A06B10B10020A16BC86320680068C5
:102DD00020F480602168086000206085606B10B17D
:102DE0000020616B0865A06B10B10020A16B086525
:102DF0002068006820F001002168086094F83D0018
:102E000060280AD1202084F83D00002084F83E008C
:102E100020642046FDF774FC1EE006F028002828F8
:102E200011D12068006840F0010021680860206826
:102E3000006840F48060216808600020206328203A
:102E400084F83D0005E0202084F83D00002084F84F
:102E50003E002046FDF7AAFDF8BD2DE9F0410446ED
:102E600094F83D6094F83E70102F01D0402F07D1A8
:102E7000222E05D12068006820F4006021680860D7
:102E800006F02800282805D100202063282084F897
:102E90003D0010E02068406800F40060B0F5006F6D
:102EA00007D0602E05D0202084F83D00002084F853
:102EB0003E00002020632068406800F40060B0F508
:102EC000006F46D12068406820F4006021684860A7
:102ED000606B90F83500012817D042F66350C0F6B9
:102EE0000000616B0865606BFDF79CFA00285ED0FE
:102EF0002068006820F0010021680860202084F824
:102F00003D00606B016D884751E042F66350C0F6AA
:102F10000000A16B0865A06BFDF784FA002846D07D
:102F200020684069C0F3801030B120680069616A90
:102F30000870606A401C60622068006820F0010030
:102F400021680860202084F83D00A06B016D88474F
:102F50002DE094F83D0060281AD1202084F83D002F
:102F60000020206420684069C0F3801030B12068E0
:102F70000069616A0870606A401C606220680068CD
:102F800020F00100216808602046FDF7B9FB0EE043
:102F900020684069C0F3801030B120680069616A20
:102FA0000870606A401C60622046FDF7FFFC256CDB
:102FB00005F0010058B905F00200022807D005F01D
:102FC0000400042803D005F00800082805D1206873
:102FD000406820F4E0602168486094F83D60206C0F
:102FE00000F00400042810D1282E0ED10020CFF6C6
:102FF000FF70E06200202063202084F83D00002064
:1030000084F83E002046FDF7C5FDBDE8F08101468D
:1030100008684069C0F38020B0B16FF480600A682E
:10302000506100200863202081F83D00002081F8D5
:103030003E00086C40F00400086400BF002081F8E6
:103040003C0000BF012070470020FCE770B504463B
:10305000E56A608D042810D12068406820F4806003
:103060002168486020680069616A0870606A401CD5
:103070006062608D401E60857AE0608D03281AD101
:103080002068406820F4806021684860042D07D0E3
:10309000022D05D02068006820F480602168086057
:1030A00020680069616A0870606A401C6062608D17
:1030B000401E60855CE0608D02284FD1012D01D05B
:1030C000102D06D12068006820F480602168086017
:1030D00012E0042D01D0022D06D12068006840F4D2
:1030E00080602168086007E0102D05D02068006826
:1030F00040F400702168086020680069616A087007
:10310000606A401C6062608D401E608520680069B6
:10311000616A0870606A401C6062608D401E608554
:103120002068406820F4407021684860202084F8BE
:103130003D0094F83E00402807D1002084F83E006E
:1031400020632046FDF75FFF12E0002084F83E0078
:10315000122020632046FDF71EFD09E0206800696B
:10316000616A0870606A401C6062608D401E608504
:1031700070BD70B5044694F83D00222869D1658D74
:10318000032D13D920680069616A0870606A401CC9
:103190006062608D401E6085608D032858D1206874
:1031A000406820F480602168486051E0E06A0228AD
:1031B0004ED0012D01D0002D4AD1204600F0AEFEA8
:1031C00068BB2068006820F480602168086020687F
:1031D000406820F4E0602168486020680069616A06
:1031E0000870606A401C6062608D401E608520200F
:1031F00084F83D0094F83E00402807D1002084F870
:103200003E0020632046FDF7FEFE21E0002084F80A
:103210003E00122020632046FDF7BDFC18E0206828
:10322000406820F4E0602168486020680069616AB5
:103230000870606A401C6062608D401E60852020BE
:1032400084F83D00002084F83E002046FDF7AEFBE8
:1032500000BF70BD2DE9F84304460D4690461E465A
:10326000E76A2068006840F4806021680860082FE1
:1032700004D0012F02D017F5803F06D120680068E6
:1032800040F480702168086008E0206B112805D1A7
:103290002068006840F4807021680860434600227E
:1032A0004FF001112046009600F053FD60B12068F8
:1032B000006800F48070B0F5807F02D14FF4007098
:1032C00020640320BDE8F8832069B0F5804F05D164
:1032D000E8B240F00100216808614CE005F440705C
:1032E000F02141EAE0102168086133464246082196
:1032F000C0F20101204600F06FFD08B10120E1E7B6
:10330000E8B221680861334642460221C0F2010159
:10331000204600F061FD08B10120D3E700BF002086
:10332000009020684069009020688069009000BF8C
:1033300000BF2068006840F4807021680860434640
:1033400000224FF001112046009600F002FD58B116
:103350002068006800F48070B0F5807F02D14FF4DF
:10336000007020640320ADE705F44070F12141EACC
:10337000E01021680861334642460221C0F2010193
:10338000204600F029FD08B101209BE7002099E7C5
:103390002DE9F84304460D4617469846E66A082E7E
:1033A00004D0012E02D016F5803F06D120680068B7
:1033B00040F480702168086008E0206B122805D175
:1033C0002068006840F48070216808603B46002255
:1033D0004FF001112046CDF8008000F0BAFC60B13A
:1033E0002068006800F48070B0F5807F02D14FF44F
:1033F000007020640320BDE8F8832069B0F5804F99
:1034000004D105F0FE002168086114E005F4407065
:10341000F02141EAE0102168086143463A4608215C
:10342000C0F20101204600F0D7FC08B10120E2E71C
:10343000E8B22168086143463A460221C0F2010120
:10344000204600F0C9FC08B10120D4E70020D2E7F3
:1034500070B50446E56A94F83D0021283CD1608DA2
:1034600050B1606A007821680861606A401C60623F
:10347000608D401E60852FE0082D16D0202D14D0C1
:1034800015F5803F11D02068406820F4E060216885
:10349000486011202063002084F83E00202084F83A
:1034A0003D002046FDF778FB16E02068406820F4D8
:1034B000E060216848602068006840F4007021687E
:1034C000086000202063202084F83D00002084F85C
:1034D0003E002046FDF760FB70BD2DE9F04104463B
:1034E00094F83D5094F83E70E66A208DB0BB212DD3
:1034F0003CD1082E16D0202E14D016F5803F11D0C6
:103500002068406820F4E060216848601120206352
:10351000002084F83E00202084F83D002046FDF77E
:103520003BFB44E02068406820F4E060216848608C
:103530002068006840F40070216808600020206363
:10354000202084F83D0094F83E00402807D1002058
:1035500084F83E002046FDF757FD28E006E00020F5
:1035600084F83E002046FDF717FB20E0212D03D014
:10357000402F1CD1222D1AD1608D30B920684068AF
:1035800020F480602168486011E094F83E004028F3
:1035900003D1204600F0A5F909E0606A00782168AF
:1035A0000861606A401C6062608D401E6085BDE8F5
:1035B000F081416CC9B202681161416B09B9816B3C
:1035C00059B1416BC96B11B9816BC96B29B10168E4
:1035D000496841F4006102685160704738B590F85D
:1035E0003E20C16A036B90F83D40222C73D1046DDC
:1035F00064B9402A0AD100BF0024009404686469B9
:1036000000940468A469009400BF1AE1046DC4B971
:103610000469B4F5404F14D100BF0024009404683D
:10362000646900940468A469009400BF00BF046842
:10363000246844F4807405682C60046D641C04657F
:10364000FFE0448D8CB900BF0024009404686469D5
:1036500000940468A469009400BF00BF0468246853
:1036600044F4007405682C60DDE0448D012C72D1B7
:1036700011F5803F30D10468246824F48064056823
:103680002C600468646804F40064B4F5006F10D121
:103690000468246824F4806405682C6000BF00245A
:1036A00000940468646900940468A469009400BFED
:1036B000B9E000BF002400940468646900940468C1
:1036C000A469009400BF00BF0468246844F4007437
:1036D00005682C60A7E0A9E0082923D0202921D083
:1036E000122B01D101291DD104290AD0022908D0A9
:1036F000102906D00468246824F4806405682C60CE
:1037000005E00468246844F4806405682C6000BF08
:10371000002400940468646900940468A469009417
:1037200000BF80E00468246824F4806405682C608D
:1037300000BF002400940468646900940468A469CC
:10374000009400BF00BF0468246844F40074056856
:103750002C6068E0FFE7448D022C3BD1042910D097
:1037600002290ED010290CD00468246824F4806447
:1037700005682C600468246844F4006405682C60C3
:1037800005E00468246844F4806405682C600468DB
:10379000646804F40064B4F5006F10D111F5803F43
:1037A00007D0012905D0082903D0102901D02029EC
:1037B00005D10468646844F4805405686C6000BFF7
:1037C000002400940468646900940468A469009467
:1037D00000BF28E00468246844F4806405682C6015
:1037E0000468646804F40064B4F5006F10D111F546
:1037F000803F07D0012905D0082903D0102901D026
:10380000202905D10468646844F4805405686C601C
:1038100000BF002400940468646900940468A469EB
:10382000009400BF00BF002404650AE000BF00242C
:1038300000940468646900940468A469009400BF5B
:1038400000BF38BD90F83E1040290ED1016D29B956
:10385000416C01F0FE010268116141E0416CC9B2A6
:1038600041F00101026811613AE00169B1F5804F50
:1038700020D190F83D10212905D1416C01F0FE01C5
:103880000268116105E0416CC9B241F001010268B2
:103890001161416B11B1416BC96B21B9816BF9B1F8
:1038A000816BC96BE1B10168496841F4006102684C
:1038B000516015E0016D41B9416C01F44071F02295
:1038C00042EAE111026811610AE0016D012907D1A4
:1038D000416C01F44071F12242EAE1110268116188
:1038E000704770B5044694F83D50206D98B9E06C6F
:1038F000012807D1A06CC0B221680861206D801C2E
:10390000206549E0A06CC0F3072021680861206DA4
:10391000401C206540E0206D012807D1A06CC0B29A
:1039200021680861206D401C206535E0206D02286B
:1039300032D1222D06D12068006840F480702168C1
:10394000086029E0608D60B1212D0AD1606A00789D
:1039500021680861606A401C6062608D401E60855D
:103960001AE0608DC0B9212D16D12068406820F47E
:10397000E060216848602068006840F400702168B9
:10398000086000202063202084F83D00002084F897
:103990003E002046FDF738FB70BD418D49B10168FE
:1039A0000969426A1170416A491C4162418D491E90
:1039B0004185704770B5044694F83D50608DD8B18C
:1039C00020680069616A0870606A401C6062608DEE
:1039D000401E6085608D78B92A2D0DD12068406821
:1039E00020F480602168486022202063282084F829
:1039F0003D002046FDF767FB70BD418D49B1416A2E
:103A0000097802681161416A491C4162418D491E71
:103A10004185704770B5044694F83D50608DD8B12B
:103A2000606A007821680861606A401C6062608D8D
:103A3000401E6085608D78B9292D0DD120684068C1
:103A400020F480602168486021202063282084F8C9
:103A50003D002046FDF738FB70BD2DE9F0410446DE
:103A60000D46002794F83D0000F0280028281CD1BE
:103A70002068406820F4806021684860C5F38000B9
:103A800000B90127C5F3C01010B9A08986B201E0C2
:103A9000208B86B200BF002084F83C0000BF324675
:103AA00039462046FCF72DFE08E06FF00200216841
:103AB000486100BF002084F83C0000BFBDE8F081F1
:103AC00070B5044694F83D50E66A082E01D0202EC9
:103AD00021D1282D1FD10020CFF6FF70E062206891
:103AE000406820F4E060216848606FF480602168DD
:103AF00048612068006820F4806021680860002028
:103B00002063202084F83D00002084F83E002046F9
:103B1000FDF740F825E0212D1FD10020CFF6FF70E2
:103B2000E06221202063202084F83D00002084F8FA
:103B30003E002068406820F4E060216848606FF42F
:103B40008060216848612068006820F480602168F6
:103B500008602046FDF7B8FA03E06FF48060216842
:103B6000486170BD38B5044694F83D5020684068FF
:103B700020F4E0602168486000BF002000902068C9
:103B8000406900902068006840F0010021680860EA
:103B900000BF00BF2068006820F4806021680860D2
:103BA0002068406800F40060B0F5006F48D1222D15
:103BB00001D02A2D22D1A06B006840686085608DFD
:103BC00018B1206C40F0040020642068406820F4A4
:103BD000006021684860A06BFCF738FC01282FD0FA
:103BE00042F66350C0F60000A16B0865A06BFCF7BD
:103BF00019FC28B3A06B016D884721E0606B006859
:103C000040686085608D18B1206C40F0040020642D
:103C10002068406820F4006021684860606BFCF711
:103C200015FC01280CD042F66350C0F60000616B11
:103C30000865606BFCF7F6FB10B1606B016D88479F
:103C4000608D18B320684069C0F3800048B12068D7
:103C50000069616A0870606A401C6062608D401E85
:103C6000608520684069C0F3801048B12068006911
:103C7000616A0870606A401C6062608D401E6085E9
:103C8000608D18B1206C40F004002064206C18B1E5
:103C90002046FFF7E2F82DE02A2D07D1002020630F
:103CA000282084F83D002046FDF70DFA94F83D00E9
:103CB00028280FD10020CFF6FF70E062002020639B
:103CC000202084F83D00002084F83E002046FCF7C8
:103CD00061FF0FE0206B222801D0222D0AD10020A5
:103CE0002063202084F83D00002084F83E00204618
:103CF000FDF7E9F938BD70B504460D46164620E0DB
:103D00002046FFF784F908B1012070BD681CC0B1DE
:103D1000FCF7F0FC801BA84200D895B90020206376
:103D2000202084F83D00002084F83E00206C40F004
:103D30002000206400BF002084F83C0000BF012068
:103D4000E3E720684069C0F380000028D8D0002055
:103D5000DBE72DE9F04104460D4617461E46DDF827
:103D600018801CE0701CD0B1FCF7C4FCA0EB08006C
:103D7000B04200D89EB900202063202084F83D0086
:103D8000002084F83E00206C40F02000206400BF3A
:103D9000002084F83C0000BF0120BDE8F081C5F39D
:103DA000074001280AD120684069A9B20840A9B299
:103DB000884201D101200BE0002009E020688069E1
:103DC000A9B20840A9B2884201D1012000E0002038
:103DD000B842C7D00020E0E72DE9F04104460D4687
:103DE00016461F463DE020684069C0F38020E8B1D8
:103DF0002068006840F40070216808606FF48060FB
:103E00002168486100202063202084F83D000020C4
:103E100084F83E00206C40F00400206400BF0020C5
:103E200084F83C0000BF0120BDE8F081701CC0B1E7
:103E3000FCF760FCC01BB04200D896B9002020639C
:103E4000202084F83D00002084F83E00206C40F0E3
:103E50002000206400BF002084F83C0000BF012047
:103E6000E2E7C5F3074001280AD120684069A9B2FA
:103E70000840A9B2884201D101200BE0002009E0EE
:103E800020688069A9B20840A9B2884201D1012006
:103E900000E000200028A6D00020C5E770B5044649
:103EA0000D46164632E020684069C0F30010A0B10C
:103EB0006FF010002168486100202063202084F802
:103EC0003D00002084F83E00206C206400BF0020EC
:103ED00084F83C0000BF012070BDFCF70BFC801B88
:103EE000A84200D895B900202063202084F83D0026
:103EF000002084F83E00206C40F02000206400BFC9
:103F0000002084F83C0000BF0120E5E720684069FC
:103F1000C0F380100028C6D00020DDE708B50146B8
:103F20000020009040F23800C2F200000068192220
:103F3000B0FBF2F04FF47A72B0FBF2F000EB8000CD
:103F4000009000BF0098401E0090009828B9086CAF
:103F500040F020000864012008BD0868006800F4F3
:103F60000070B0F5007FEDD00020F5E770B5044695
:103F70000D46164620E02046FFF749F808B101201B
:103F800070BD681CC0B1FCF7B5FB801BA84200D80F
:103F900095B900202063202084F83D00002084F89B
:103FA0003E00206C40F02000206400BF002084F818
:103FB0003C0000BF0120E3E720684069C0F3C01067
:103FC0000028D8D00020DBE730B50B46002100BF29
:103FD00016E00A24B4EB107F05D9302404EB1074EA
:103FE00003F8114005E0412404EB10740A3C03F887
:103FF0001140000100254C00641C1D554C1CE1B211
:104000009142E6DB30BD00B587B0142102A8FCF771
:1040100029F900BF0020019043F63000C4F20200ED
:10402000006840F0040043F63001C4F20201086069
:104030000846006800F00400019000BF00BF00BF08
:10404000002001900846006840F0800008600846A3
:10405000006800F08000019000BF00BF00BF00209A
:1040600001900846006840F00100086008460068BA
:1040700000F00100019000BF00BF00BF00200190D0
:104080000846006840F0020008600846006800F03A
:104090000200019000BF00BF00BF00200190084651
:1040A000006840F0080008600846006800F008005A
:1040B000019000BF00BF002202210020C4F20200D4
:1040C000FCF712FB012248F260014FF48060C4F259
:1040D0000200FCF709FB012291024FF40060C4F2D8
:1040E0000200FCF701FB0220029001200390002057
:1040F0000490059002A90020C4F20200FCF7EBF93D
:104100004FF400400290012003900490022005909B
:1041100002A94FF48060C4F20200FCF7DCF94FF40E
:10412000806002900120039000200490059002A975
:104130004FF40060C4F20200FCF7CDF904200290B5
:104140000020C1F2210003900020049002A94FF446
:104150004060C4F20200FCF7BEF91020029000207B
:10416000C1F2310003900020049002A94FF4806056
:10417000C4F20200FCF7AFF9602002900120039026
:1041800000200490059002A94FF48060C4F2020060
:10419000FCF7A1F98020029000200390049002A96E
:1041A0004FF48060C4F20200FCF795F9002211463A
:1041B0000820FDF71DF80820FDF70AF80022114637
:1041C0000A20FDF715F80A20FDF702F807B000BD38
:1041D00010B54FF4A840C4F2000040F2C011C2F282
:1041E000000108604FF4D450C0F20600486000217E
:1041F00040F2C010C2F200008160C1604FF4804103
:104200000161002141618161C1610162FCF7CFFB65
:1042100008B1FCF7E1F810BD10B54FF48840C4F2C6
:10422000000040F21421C2F2000108604FF4E130B6
:104230004860002140F21420C2F200008160C16099
:1042400001610C21416100218161C161FEF73EFBEA
:1042500008B1FCF7C1F810BD10B54FF4A050C4F27E
:10426000010040F25421C2F2000108604FF4E13035
:104270004860002140F25420C2F200008160C16019
:1042800001610C21416100218161C161FEF71EFBCA
:1042900008B1FCF7A1F810BD10B547F27C60C0F67C
:1042A000000002F091FE002240F23C01C2F2000147
:1042B00040F29420C2F2000001F098F908B1FCF736
:1042C0008BF840F2C401C2F2000140F29420C2F225
:1042D000000001F032FC08B1FCF77EF840F2B001BA
:1042E000C2F2000140F29420C2F2000000F0CCFDC6
:1042F00008B1FCF771F840F29420C2F2000001F01E
:1043000019FD08B1FCF768F810BD00BFFEE700BF5B
:10431000FEE710B540F2E470C2F20000FDF770F95C
:1043200010BD2DE9F04704460D4626683746D6F8FD
:10433000408007F5306000EB4510D0F8089043F25C
:104340000A00C4F6547080450BD909F40040B0F55A
:10435000004F06D14FF4004107F5306000EB4510E7
:1043600081602046FDF760FD43F20A00C4F65470F8
:10437000804508D92069012805D104F57172012111
:10438000206802F01FFA0020BDE8F0872DE9F04711
:1043900005460C46D5F800804646D8F8409006F50C
:1043A000306000EB441087682869012879D107F054
:1043B0000800082812D143F20A00C4F6547081455F
:1043C0000BD907F40040B0F5004F06D14FF400417F
:1043D00006F5306000EB4410816097E007F02000A4
:1043E000202806D1202106F5306000EB44108160C2
:1043F0008CE007F02800002811D143F20A00C4F62F
:10440000547081450CD907F40040B0F5004F07D136
:104410004FF4004106F5306000EB4410816075E018
:10442000C4EBC40105F5FE7000EB8100816806F560
:10443000306000EB44100069C0F31200091AC4EBAD
:10444000C40205F5FE7000EB82008161C4EBC4017B
:1044500005F5FE7000EB8100C4EBC402C16805F5F0
:10446000FE7000EB820080680144C4EBC40205F5D5
:10447000FE7000EB8200C1606CB9C4EBC40105F5AD
:10448000FE7000EB8100406928B905F571720121C9
:10449000286802F097F9E1B22846FCF743FF35E0BF
:1044A000FFE743F20A10C4F6547081451BD107F4AC
:1044B0000040B0F5004F07D14FF4004106F53060E1
:1044C00000EB4410816021E007F02000202805D196
:1044D000202106F5306000EB44108160E1B22846EF
:1044E000FCF720FF12E06CB9C4EBC40105F5FE70C7
:1044F00000EB8100406928B905F571720021286838
:1045000002F060F9E1B22846FCF70CFF0020BDE89C
:10451000F0872DE9F84F07460E46D7F80090C846B9
:10452000C6EBC60107F13C0000EB8104D4E905109D
:10453000884202D90120BDE8F88FD4E90501451A67
:10454000A068A84200D2A568E81C4FEA900A17E0CC
:10455000D4E90501451AA068A84200D2A568E81C64
:104560004FEA900A387CABB2F2B200904846E1685C
:1045700002F00AFDE0682844E060A0692844A061D8
:1045800008F5106000EB4610806980B2504506D3F4
:10459000D4E90510884202D260690028D8D1D4E954
:1045A000050188420ED806F00F01012000FA01FB38
:1045B00040F6340050F8080020EA0B0040F63401C1
:1045C00041F808000020B6E7704710B5012220210D
:1045D0004FF48060C4F20200FCF786F8002220212C
:1045E0004FF48060C4F20200FCF77EF8FBF7C7FED0
:1045F000012220214FF48060C4F20200FCF774F81D
:1046000010BD704730B501460A461378521C147825
:1046100043EA042030BD10B5FCF757FD10BD00B5CE
:1046200093B0302107A8FBF71DFE142102A8FBF769
:1046300019FE00BF002001904FF46150C4F2020047
:10464000006840F080504FF46151C4F202010860EC
:104650000846006800F08050019000BF00BF00BF16
:10466000002001904FF4E040C4F20000006820F404
:10467000404040F400404FF4E041C4F200010860C3
:104680000846006800F44040019000BF00BF0120D0
:1046900007900004089002200D9041050E9108211A
:1046A0000F91A8211091042111910721129107A8BF
:1046B000FDF794FD08B1FBF78FFE0F20029002205A
:1046C0000390802004904001059000200690012175
:1046D00002A8FDF7F4FB08B1FBF77EFE13B000BDA6
:1046E0004EF68850CEF20000006840F470004EF69E
:1046F0008851CEF2000108604FF000604EF608517C
:10470000CEF200010860704770B50546AC6B002022
:10471000E085E0842046FEF72DF870BD0168C96889
:1047200021F490710268D1600168496921F00101AA
:1047300002685161202180F83A10704710B5044694
:104740002068C06820F040002168C860202084F8FC
:1047500039002046FEF792FA002010BD70B50446DD
:1047600094F83A0022284AD1A068B0F5805F13D1AE
:10477000A56A206940B920684068C0F30800288015
:10478000A06A801CA06219E020684068C0B228803E
:10479000A06A401CA06211E0206938B92068406816
:1047A000C1B2A26A501CA062117007E02068406884
:1047B00000F07F01A26A501CA0621170E08D401EC3
:1047C00080B2E085C8B92068C06820F02000216868
:1047D000C8602068C06820F480702168C8602068C4
:1047E000406920F0010021684861202084F83A00E7
:1047F0002046FEF77DF9002070BD0020FCE7022076
:10480000FAE72DE9F84F04462068006920F440508B
:10481000E1680843216808612169A068084361696B
:104820000843E169084300902068C06820F40370E1
:1048300020F41440009908432168C860206840694A
:1048400020F44070A169084321684861E069B0F52F
:10485000004F7ED14FF48051C4F20101206888429C
:1048600006D04FF4A051C4F201012068884272D1F1
:10487000FDF739FC814602206168A0FB0150034628
:104880001920A9FB00712A463846FBF7A1FC6421D8
:10489000B0FBF1F04FEA001A02206168A0FB015062
:1048A00003461920A9FB00712A463846FBF790FC05
:1048B000074602206168A0FB01511920A9FB00B046
:1048C00084462A460B4658466146FBF781FC642124
:1048D000B0FBF1F000EBC00101EB0010A7EB800092
:1048E000322101EBC0006421B0FBF1F000F0F800D0
:1048F0000AEB400A02206168A0FB01500346192020
:10490000A9FB00712A463846FBF762FC07460220E5
:104910006168A0FB015003461920A9FB00B00146C5
:104920002A465846FBF754FC6421B0FBF1F000EB3B
:10493000C00101EB0010A7EB8000322101EBC000A9
:104940006421B0FBF1F000F007005044216888605A
:104950005FE171E0FFE7FDF7B5FB8146022061688A
:10496000A0FB015003461920A9FB00712A463846D6
:10497000FBF72EFC6421B0FBF1F04FEA001A022095
:104980006168A0FB015003461920A9FB0070014695
:104990002A463846FBF71CFC074602206168A0FB4C
:1049A000015003461920A9FB00B12A465846FBF7DF
:1049B0000FFC6421B0FBF1F000EBC00101EB001033
:1049C000A7EB8000322101EBC0006421B0FBF1F0C5
:1049D00000F0F8000AEB400A02206168A0FB0151D8
:1049E0001920A9FB007080462A460B4638464146EE
:1049F000FBF7EEFB074602206168A0FB015003466F
:104A00001920A9FB00B12A465846FBF7E1FB6421B7
:104A1000B0FBF1F000EBC00101EB0010A7EB800050
:104A2000322101EBC0006421B0FBF1F000F007007F
:104A3000504421688860ECE04FF48051C4F20101D9
:104A40002068884206D04FF4A051C4F201012068CA
:104A5000884270D1FDF747FB814604206168A0FBC6
:104A600001511920A9FB007080462A460B463846A2
:104A70004146FBF7ADFB824604206168A0FB015074
:104A800003461920A9FB00712A463846FBF7A0FB14
:104A90006421B0FBF1F000EBC00101EB0010AAEBC8
:104AA0008000322101EB00106421B0FBF1F000F036
:104AB000F00A04206168A0FB015003461920A9FBFD
:104AC000007001462A463846FBF782FB6421B0FBA2
:104AD000F1F00AEB001A04206168A0FB01500346C4
:104AE0001920A9FB00712A463846FBF771FB0746DF
:104AF00004206168A0FB015003461920A9FB00B007
:104B000001462A465846FBF763FB6421B0FBF1F0EF
:104B100000EBC00101EB0010A7EB8000322101EB9C
:104B200000106421B0FBF1F000F00F005044216848
:104B300088606EE0FFE7FDF7C5FA814604206168F2
:104B4000A0FB015003461920A9FB00712A463846F4
:104B5000FBF73EFB824604206168A0FB0150034640
:104B60001920A9FB00712A463846FBF731FB642166
:104B7000B0FBF1F000EBC00101EB0010AAEB8000EC
:104B8000322101EB00106421B0FBF1F000F0F00ADB
:104B900004206168A0FB015003461920A9FB0070A6
:104BA00001462A463846FBF713FB6421B0FBF1F0BF
:104BB0000AEB001A04206168A0FB0170034619206B
:104BC000A9FB005001463A462846FBF701FB074681
:104BD00004206168A0FB015003461920A9FB00B026
:104BE00001462A465846FBF7F3FA6421B0FBF1F080
:104BF00000EBC00101EB0010A7EB8000322101EBBC
:104C000000106421B0FBF1F000F00F005044216867
:104C10008860BDE8F88F014691F8390021282CD131
:104C20008868B0F5805F0FD10A6A1088C0F3080069
:104C30000B685860086918B9086A801C086209E0A6
:104C4000086A401C086205E00B6A581C0862187864
:104C50000B685860C88C401E80B2C88458B9086878
:104C6000C06820F080000B68D8600868C06840F019
:104C700040000B68D860002070470220FCE72DE957
:104C8000F04104460D4617469846069E21E0701CEA
:104C9000F8B12EB1FBF72EFDA0EB0800B04218D9F9
:104CA0002068C06820F4D0702168C860206840691E
:104CB00020F0010021684861202084F8390084F840
:104CC0003A0000BF002084F8380000BF0320BDE890
:104CD000F081206800682840A84201D1012000E04E
:104CE0000020B842D3D00020F1E710B540F21420E4
:104CF000C2F20000FDF73FFD052240F22401C2F29E
:104D0000000140F21420C2F20000FDF7B9FE10BD10
:104D100010B540F25420C2F20000FDF72CFD052230
:104D200040F22401C2F2000140F25420C2F200001D
:104D3000FDF7A6FE10BD02460020D2F8BC32187561
:104D4000704770B504460E46D4F8BC0208B903207B
:104D500070BDD4F8BC52D4F8C002C1682846884758
:104D600002232A461946204600F0D5FD0020EFE731
:104D700070B504460D468121204600F06CFC0021F0
:104D8000218761870221204600F065FC0021A4F8FC
:104D90008C11A4F88E11D4F8BC0250B1D4F8C01212
:104DA00088688047D4F8BC0202F086FB0020C4F873
:104DB000BC02002070BD70B50446D4F8BC5228690E
:104DC000012806D1D4F8C002C168284688470020CF
:104DD0002861002070BD01460A20088040F28C1036
:104DE000C2F20000704701462920088040F2FC0012
:104DF000C2F20000704701462920088040F22810C6
:104E0000C2F20000704701462920088040F2541089
:104E1000C2F20000704770B504460E46182002F03A
:104E2000ADFB054625B90020C4F8BC02022070BDC8
:104E3000C4F8BC52207C20B905216187A4F88E11EA
:104E400003E002216187A4F88E1108230322812147
:104E5000204600F048FD0121218780230322022102
:104E6000204600F040FD0121A4F88C110020287597
:104E7000D4F8C0124868804702232A4619462046C3
:104E800000F049FD0020D2E7024609B9032070472F
:104E9000C2F8C0120020FAE72DE9F04104460E46A0
:104EA0001746D4F8BC0210B90320BDE8F081D4F84D
:104EB000BC5294F89C0203280CD1287D40B90120F3
:104EC00028753B4632468121204600F003FE01E072
:104ED0000120EAE70020E8E770B504460D462A46BF
:104EE000214640F29420C2F20000FFF7D5FF40B205
:104EF00070BD2DE9F84306460C46D6F8BC52002793
:104F0000B846002000908146207800F0600080B311
:104F1000202874D16078801E0A2821D247F220719F
:104F2000C0F60001D1E800F0A07868601FE001221F
:104F3000291D304600F00BF919E060880012A860C6
:104F400015E0012205F10801304600F000F90EE0FD
:104F500001202861E2882946304600F0D7F806E0B3
:104F60002146304600F0C6F84FF0030900BF00BFED
:104F700077E0FFE7607806281AD003DC38B1012813
:104F80005FD15DE00A283BD00B285AD14AE096F861
:104F90009C02032805D102226946304600F0D7F86A
:104FA00005E02146304600F0A5F84FF003094FE038
:104FB00060882221B1EB202F0BD1E088232801D972
:104FC000232000E0E0880746D6F8C002D0F8008031
:104FD0000FE060882121B1EB202F0AD140F2801828
:104FE000C2F20008E088092801D9092000E0E08821
:104FF00007463A464146304600F0A9F828E029E045
:1050000096F89C02032806D1012205F10C013046D6
:1050100000F09DF805E02146304600F06BF84FF0B7
:10502000030915E096F89C02032802D1A078E860F5
:1050300005E02146304600F05DF84FF0030907E037
:1050400006E02146304600F055F84FF0030900BF56
:1050500000BF06E02146304600F04CF84FF003094F
:1050600000BF00BF4846BDE8F88370B504460D4652
:10507000D4F8B80228B1D4F8B802294642682046CC
:105080009047002070BD70B504460D4694F89C0210
:10509000012804D0022803D003280CD101E000BF6E
:1050A00000BF6888012805D10020C4F8A40220466A
:1050B00000F05EF804E02946204600F01BF800BF2F
:1050C00000BF70BD70B506460C4615462B462246FD
:1050D0000021304600F01FFC002070BD70B5064670
:1050E0000C4615462B4622460021304600F0F2FCC5
:1050F000002070BD70B504460D468021204600F0AA
:10510000BDFC0021204600F0B9FC70BD70B504461E
:105110000E4615460320C4F894024FF4AC700551B6
:10512000001D05512B4632460021204600F0F3FBBE
:10513000002070BD10B504460520C4F89402002379
:105140001A461946204600F0E6FB002010BD70B557
:1051500004460E4615460220C4F89402A561E56196
:105160002B4632460021204600F0B4FC002070BDE2
:1051700010B504460420C4F8940200231A461946C8
:10518000204600F0A7FC002010BD70B505460C4677
:105190005DB9224640F26451C2F2000147F2B460A8
:1051A000C0F6000000F0E2F90AE0224640F2645145
:1051B000C2F2000147F2B460C0F6000000F0D6F978
:1051C00040F26450C2F2000070BD02461220088016
:1051D00040F25800C2F20000704770B505460C4618
:1051E0005DB9224640F26451C2F2000147F2C86044
:1051F000C0F6000000F0BAF90AE0224640F264511D
:10520000C2F2000147F2C860C0F6000000F0AEF93B
:1052100040F26450C2F2000070BD024604200880D3
:1052200040F26C00C2F20000704770B505460C46B3
:10523000224640F26451C2F2000147F2B060C0F66B
:10524000000000F093F940F26450C2F2000070BD1B
:1052500070B505460C465DB9224640F26451C2F273
:10526000000147F29460C0F6000000F07FF90AE008
:10527000224640F26451C2F2000147F29460C0F647
:10528000000000F073F940F26450C2F2000070BDFB
:1052900070B505460C461A202080FBF7A6F840F2B0
:1052A0007000C2F2000070BD70B504460D46E8887B
:1052B000012804D029462046FFF71CFF1EE094F881
:1052C0009C02012804D0022803D0032810D109E051
:1052D00000BF0020A060012204F108012046FFF772
:1052E00036FF0AE00122211D2046FFF730FF04E0CF
:1052F00029462046FFF7FEFE00BF00BF70BDF8B58F
:1053000004460E46002000900027002570880012F9
:1053100008286FD247F22A71C0F60001D1E800F0E8
:10532000207CD4F8B4120A68694690470746C2E068
:10533000207C40B9D4F8B802816A6846884707469D
:105340000220787007E0D4F8B802C16A684688473E
:10535000074602207870AEE0B078062879D247F28E
:105360003271C0F60001D1E800F0D4F8B402406810
:1053700038B1207CD4F8B4124A6869469047074691
:1053800005E031462046FFF7B5FE681CC5B267E070
:10539000D4F8B402806838B1207CD4F8B4128A689A
:1053A00069469047074605E031462046FFF7A2FED2
:1053B000681CC5B254E0D4F8B402C06838B1207C8F
:1053C000D4F8B412CA6869469047074605E03146EA
:1053D0002046FFF78FFE681CC5B241E0D4F8B40246
:1053E000006940B1207CD4F8B4120A69694690473C
:1053F000074606E058E031462046FFF77BFE681C72
:10540000C5B22DE0D4F8B402406938B1207CD4F89C
:10541000B4124A6969469047074605E0314620467E
:10542000FFF768FE681CC5B21AE0D4F8B4028069C0
:1054300040B1207CD4F8B4128A6969469047074687
:1054400006E006E031462046FFF754FE681CC5B270
:1054500006E031462046FFF74DFE681CC5B200BF8E
:1054600000BF28E0207C30B9D4F8B802416B684610
:105470008847074605E031462046FFF73BFE681C9B
:10548000C5B218E0207C40B9D4F8B802016B684678
:10549000884707460720787005E031462046FFF729
:1054A00029FE681CC5B206E031462046FFF722FE01
:1054B000681CC5B200BF00BF05B1F8BDF088C0B11F
:1054C000BDF8000080B1F088BDF80010884202DD10
:1054D000BDF8000000E0F0880090BDF800203946DB
:1054E0002046FFF734FE07E031462046FFF702FE74
:1054F00002E02046FFF73CFE00BFDEE70146002049
:105500000A4602E0431CD8B2521C1378002BF9D192
:10551000704770B504460D4694F89C02012804D0EB
:10552000022803D003281AD101E000BF00BFE88899
:10553000022804D029462046FFF7DCFD14E00120B4
:10554000E060D4F8A40218B1E06840F00200E06026
:10555000022204F10C012046FFF7F9FD04E0294680
:105560002046FFF7C7FD00BF00BF70BD2DE9F04129
:1055700007460D46904600240FB9BDE8F0813E462F
:105580003046FFF7BBFF022101EB4000A8F8000006
:1055900098F800002855601CC4B203202855601CF0
:1055A000C4B208E030782855761C601CC4B20020D4
:1055B0002855601CC4B230780028F3D100BFDCE766
:1055C0000146002031B1012906D0022906D0032965
:1055D00008D105E0002007E0032005E0012003E0FA
:1055E000032001E0032000BF00BF70472DE9F04118
:1055F00004460D46164614B90320BDE8F081D4F8E0
:10560000B80210B10020C4F8B802D4F8CC0210B12E
:105610000020C4F8CC020DB1C4F8B452012084F8C3
:105620009C022670204600F0F8F807463846E4E76A
:105630002DE9F04104460D46002600272946D4F8FE
:10564000C402FBF7BBFE06463046FFF7B9FF07462C
:105650003846BDE8F0812DE9F04104460D460026AC
:1056600000272946D4F8C402FBF773FE06463046ED
:10567000FFF7A6FF07463846BDE8F0812DE9F04167
:1056800004460F469046002F54D104F11405D4F877
:105690009402022843D1D5E9020188420FD9D5E905
:1056A0000201401AA86041462046AA68FFF716FD8D
:1056B00000231A461946204600F02DF92FE0D5E9BF
:1056C0000210884217D1E9686868884213D3686875
:1056D000D4F8981288420ED2002211462046FFF7D5
:1056E000FDFC0020C4F8980200231A461946204603
:1056F00000F011F913E0D4F8B802C06840B194F892
:105700009C02032804D1D4F8B802C1682046884717
:105710008021204600F0B2F92046FFF70BFD94F8F7
:10572000A00201281BD1204600F01AFA002084F8BC
:10573000A00214E0D4F8B802406970B194F89C0259
:1057400003280AD1D4F8B802394642692046904766
:10575000064626B13046BDE8F0810320FBE7002075
:10576000F9E72DE9F04105460F4690465FBB05F588
:10577000AA74D5F8940203283AD1D4E902018842E8
:1057800010D9D4E90201401AA060D4E9020188428C
:1057900001D2A06800E0E068024641462846FFF7D3
:1057A00091FC25E0D5F8B802006940B195F89C025B
:1057B000032804D1D5F8B80201692846884728464D
:1057C000FFF7D6FC14E0D5F8B802806970B195F8FF
:1057D0009C0203280AD1D5F8B802394682692846C6
:1057E0009047064626B13046BDE8F0810320FBE72E
:1057F0000020F9E701460020704710B5044601205B
:1058000084F89C02D4F8B80228B12179D4F8B802FF
:10581000426820469047002010BD10B5044620780D
:1058200000283CD140F2E470C2F20000C0F8044409
:10583000C4F8C4024FF0A04040F2E471C2F200018B
:10584000086004204860022140F2E470C2F20000C7
:10585000C16000210161022181610021C1610162F9
:105860004162C1620163FCF78BF908B1FAF7B4FD3C
:10587000802140F2E470C2F20000FBF710FD4022EC
:10588000002140F2E470C2F20000FBF70DFD80221F
:10589000012140F2E470C2F20000FBF705FD002098
:1058A00010BD10B50246D2F8C43201F08000802845
:1058B00009D101F07F00C0EBC00403F13C0000EB14
:1058C0008400807810BD01F07F00C0EBC00403F5B8
:1058D000FE7000EB84008078F4E7024600207047F9
:1058E0000246002070472DE9F04704460F46154652
:1058F0001E464FF00008C1462B4632463946D4F8C2
:10590000C402FBF799FD80464046FFF759FE8146E9
:105910004846BDE8F0872DE9F04704460D46164697
:105920001F464FF00008C1463B4632462946D4F890
:10593000C402FBF7C7FD80464046FFF741FE8146A3
:105940004846BDE8F08710B50446012084F89C0263
:105950000020C4F894026060C4F8A402D4F8BC0229
:1059600028B12179D4F8B8024268204690474023F4
:10597000002211462046FFF7B6FF01214FF4B27016
:1059800001534021001F0151402300228021204665
:10599000FFF7A9FF0121A18440212162002010BD51
:1059A000014691F89C02042803D191F89D0281F8E8
:1059B0009C020020704710B5044694F89C0203280E
:1059C00008D1D4F8B802C06920B1D4F8B802C169CE
:1059D00020468847002010BD024611740020704701
:1059E0002DE9F04104460D46002600272946D4F84B
:1059F000C402FCF7FEF906463046FFF7E1FD074614
:105A00003846BDE8F08170B504460D46294604F2DB
:105A1000AA2000F077F80120C4F894024FF42C700B
:105A2000005BC4F8980294F8AA0200F01F0020B1AD
:105A3000012809D0022815D10DE004F2AA21204640
:105A400000F07EF9064616E004F2AA21204600F096
:105A5000DEFA06460FE004F2AA21204600F0C2F961
:105A6000064608E094F8AA0200F08001204600F003
:105A700005F8064600BF00BF304670BD2DE9F04175
:105A800004460D46002600272946D4F8C402FBF739
:105A900045FD06463046FFF793FD07463846BDE80C
:105AA000F08170B5044600250026D4F8C402FCF746
:105AB000C4F905462846FFF783FD0646304670BD0B
:105AC000014691F89C0281F89D02042081F89C0215
:105AD000002070472DE9F04704460D4616461F4644
